:0A0000000C943D000C9400000C94D9
:10000A0000000C9400000C9400000C9400000C9466
:10001A0000000C9400000C9400000C9400000C9456
:10002A0000000C9400000C9400000C9400000C9446
:10003A0000000C9400000C9400000C9400000C9436
:10004A0000000C9400000C9400004E696C61692059
:10005A004144430001002D4E414E00494E460000E6
:10006A0080C0010070015E00020074016A00000095
:10007A00F894EE27ECBBF1E0FBBFEBBFE5BFF8E17C
:10008A00F1BDE1BD8DE0A2E0BB27ED938A95E9F7CA
:10009A0080E094E0A0E6ED930197E9F7ECE6F0E062
:1000AA0085919591009761F0A591B591059015906C
:1000BA00BF01F00105900D920197E1F7FB01F0CF26
:1000CA00EFE5EDBFE4E0EEBFC0E6D1E00C947B00C3
:1000DA00AA93E881E7B988E28A95F1F7369A349BC0
:1000EA00FECF349AE4B1F5B10C949301E0E0EBBB96
:1000FA00EABBE8BBE7BBE5BBE4BBE2BBE1BBE3BFF2
:10010A00E2BFECBFEFBDEEBDEDBDECBDE7BDE6BDA8
:10011A00EBBDEABDE9BDE8BDE2BDE5BDE4BDE3BDB9
:10012A00E5BFE4BFE9BFEAB9E0E8E8B9E0E0E0BF6B
:10013A00E7B9E4E8E6B9E0E0EDB9E6BFA0E10E947C
:10014A006701A0E0C5DF2F010E942401E0E0EA93E5
:10015A00A0E00E941701A4E5B0E00E9454015A925F
:10016A004A92A0E6B1E00E94C900E0E0EA93A1E069
:10017A000E941701A0E6B1E00E944501A4EFB1E098
:10018A000E94A301DECFFFCFBA93AA93A991B99196
:10019A00E991F99130962AF4E095F09531966DE25D
:1001AA006D93E89480E197E20DD088EE93E00AD04F
:1001BA0084E6992707D08AE005D06E2F10D06627EB
:1001CA006C9308956627E817F90720F06395E81BF2
:1001DA00F90BC9F7662311F416F008956894605D67
:1001EA006D930895AA93E5B3EF70AE2FE881E07F8F
:1001FA00EA2BE5BB88E08A95F1F7AA9A84E18A9509
:10020A00F1F7AA9884E18A95F1F788C0AA93A881A0
:10021A00E9DFE881E295E883A881E4DF88EC8A9542
:10022A00F1F77CC0AA93E881F0E0EC58FE4FE08138
:10023A00A981AE0FEBDF7980688022960895A2E04B
:10024A000E949501ACE0E2DFA1E00E949501E0E0A6
:10025A006E2E7E2E0895AA93A881AA3011F07914E1
:10026A0048F0E0E0EA936394A62DDCDFA881AA3087
:10027A0009F454C07394A89AA881C8DFA8984EC0FC
:10028A00BA93AA931A93A981BA81ED91A983BA83E1
:10029A001E2FE03019F0A12FDEDFF5CF10C0BA9380
:1002AA00AA931A93E981FA813196E983FA833197FD
:1002BA00E4911E2FE03019F0A12FCDDFF3CF188182
:1002CA0023960895AA93E4B3E06FE4BBA29AA09A96
:1002DA00A19AAA98A898A9989880E881E058E093EA
:1002EA007601E881E054E0937701A4E1B0E00E944E
:1002FA00A3010E949B010E949B010E949B01A0E214
:10030A0071DF8CE291E00197F1F7A8E27FDFA4E0C8
:10031A007DDFA5E87BDFA6E079DF91DF21960895EE
:10032A000E940B01A3E0B0E00C94A301A0E30E9499
:10033A00F7008CE291E00197F1F70895109639F0F1
:10034A0088EB9BE00197F1F7A8951197C9F70895F3
:00000001FF
