:0C0000000C942A000C9448000C940000A2
:10000C000C9400000C9400000C9400000C94000064
:10001C000C9400000C9400000C9400000C94000054
:10002C000C9400000C9400000C9400000C94000044
:10003C000C9400000C9400000C9400000C94000034
:10004C000C9400000C940000F894EE27ECBBF1E04B
:10005C00FBBFEBBFE5BFF8E1F1BDE1BD8DE0A2E078
:10006C00BB27ED938A95E9F780E094E0A0E6ED9349
:10007C000197E9F7EFE5EDBFE4E0EEBFC0E6D1E0B4
:10008C000C9467000A921A92FA926A937A938A9362
:10009C009A93AA93BA93EA93FA93EFB7EA934DD053
:1000AC004CD0EFEF56D0E991EFBFF991E991B991AE
:1000BC00A9919991899179916991F99019900990E7
:1000CC001895E0E0EBBBEABBE8BBE7BBE5BBEFEFA9
:1000DC00E4BBE0E0E2BBE1BBE3BFE2BFECBFEFBDE2
:1000EC00EEBDEDBDECBDE7BDE6BDEBBDEABDE9BDCA
:1000FC00E8BDE2BDE5BDE4BDE3BDEBB7E064EBBF3D
:10010C00E2E0E5BFE0E0E4BFE0E4EABFE0E0E9BF45
:10011C00EAB9E0E8E8B9E0E0E0BFE6B9EDB9E6BF7E
:10012C007894EFE016D0E7E014D0E3E012D0E1E0F1
:10013C0010D0E0E00ED0F5CFFFCFEFEFE5BBA4EF92
:10014C00B1E00E94B400E0E0E5BBA4EFB1E00C9498
:10015C00B400E5BBA4EFB1E00C94B400109639F0F8
:10016C0088EB9BE00197F1F7A8951197C9F70895D3
:00000001FF
